{
  "_format": "hh-sol-artifact-1",
  "contractName": "Todo",
  "sourceName": "contracts/Todo.sol",
  "abi": [
    {
      "anonymous": false,
      "inputs": [
        {
          "indexed": false,
          "internalType": "uint256",
          "name": "id",
          "type": "uint256"
        },
        {
          "indexed": false,
          "internalType": "bool",
          "name": "done",
          "type": "bool"
        },
        {
          "indexed": false,
          "internalType": "uint256",
          "name": "date",
          "type": "uint256"
        },
        {
          "indexed": false,
          "internalType": "string",
          "name": "content",
          "type": "string"
        },
        {
          "indexed": false,
          "internalType": "string",
          "name": "author",
          "type": "string"
        }
      ],
      "name": "TaskCreated",
      "type": "event"
    },
    {
      "anonymous": false,
      "inputs": [
        {
          "indexed": false,
          "internalType": "uint256",
          "name": "id",
          "type": "uint256"
        },
        {
          "indexed": false,
          "internalType": "bool",
          "name": "done",
          "type": "bool"
        },
        {
          "indexed": false,
          "internalType": "uint256",
          "name": "date",
          "type": "uint256"
        }
      ],
      "name": "TaskStatusToggled",
      "type": "event"
    },
    {
      "inputs": [
        {
          "internalType": "string",
          "name": "_content",
          "type": "string"
        },
        {
          "internalType": "string",
          "name": "_author",
          "type": "string"
        }
      ],
      "name": "createTask",
      "outputs": [],
      "stateMutability": "nonpayable",
      "type": "function"
    },
    {
      "inputs": [],
      "name": "getTasks",
      "outputs": [
        {
          "components": [
            {
              "internalType": "uint256",
              "name": "id",
              "type": "uint256"
            },
            {
              "internalType": "uint256",
              "name": "date",
              "type": "uint256"
            },
            {
              "internalType": "string",
              "name": "content",
              "type": "string"
            },
            {
              "internalType": "string",
              "name": "author",
              "type": "string"
            },
            {
              "internalType": "bool",
              "name": "done",
              "type": "bool"
            },
            {
              "internalType": "uint256",
              "name": "dateComplete",
              "type": "uint256"
            }
          ],
          "internalType": "struct Todo.Task[]",
          "name": "",
          "type": "tuple[]"
        }
      ],
      "stateMutability": "view",
      "type": "function"
    },
    {
      "inputs": [
        {
          "internalType": "uint256",
          "name": "",
          "type": "uint256"
        }
      ],
      "name": "tasks",
      "outputs": [
        {
          "internalType": "uint256",
          "name": "id",
          "type": "uint256"
        },
        {
          "internalType": "uint256",
          "name": "date",
          "type": "uint256"
        },
        {
          "internalType": "string",
          "name": "content",
          "type": "string"
        },
        {
          "internalType": "string",
          "name": "author",
          "type": "string"
        },
        {
          "internalType": "bool",
          "name": "done",
          "type": "bool"
        },
        {
          "internalType": "uint256",
          "name": "dateComplete",
          "type": "uint256"
        }
      ],
      "stateMutability": "view",
      "type": "function"
    },
    {
      "inputs": [
        {
          "internalType": "uint256",
          "name": "id",
          "type": "uint256"
        }
      ],
      "name": "toggleDone",
      "outputs": [],
      "stateMutability": "nonpayable",
      "type": "function"
    }
  ],
  "bytecode": "0x608060405234801561001057600080fd5b50610f2f806100206000396000f3fe608060405234801561001057600080fd5b506004361061004c5760003560e01c806304a87e3814610051578063292a45851461006f5780638d9776721461008b578063d81ef739146100c0575b600080fd5b6100596100dc565b6040516100669190610984565b60405180910390f35b61008960048036038101906100849190610aef565b6102f8565b005b6100a560048036038101906100a09190610b93565b610419565b6040516100b796959493929190610c28565b60405180910390f35b6100da60048036038101906100d59190610b93565b610572565b005b6060600060015467ffffffffffffffff8111156100fc576100fb6109c4565b5b60405190808252806020026020018201604052801561013557816020015b61012261068a565b81526020019060019003908161011a5790505b50905060005b6001548110156102f0576000808281526020019081526020016000206040518060c0016040529081600082015481526020016001820154815260200160028201805461018690610cc6565b80601f01602080910402602001604051908101604052809291908181526020018280546101b290610cc6565b80156101ff5780601f106101d4576101008083540402835291602001916101ff565b820191906000526020600020905b8154815290600101906020018083116101e257829003601f168201915b5050505050815260200160038201805461021890610cc6565b80601f016020809104026020016040519081016040528092919081815260200182805461024490610cc6565b80156102915780601f1061026657610100808354040283529160200191610291565b820191906000526020600020905b81548152906001019060200180831161027457829003601f168201915b505050505081526020016004820160009054906101000a900460ff161515151581526020016005820154815250508282815181106102d2576102d1610cf8565b5b602002602001018190525080806102e890610d56565b91505061013b565b508091505090565b6040518060c001604052806001548152602001428152602001838152602001828152602001600015158152602001600081525060008060015481526020019081526020016000206000820151816000015560208201518160010155604082015181600201908051906020019061036f9291906106c2565b50606082015181600301908051906020019061038c9291906106c2565b5060808201518160040160006101000a81548160ff02191690831515021790555060a082015181600501559050507f470ab53b8c6db4d2e5062833334e100e708916690ada8396e47a10c21e0b270f60015460004285856040516103f4959493929190610d9f565b60405180910390a1600180600082825461040e9190610e00565b925050819055505050565b600060205280600052604060002060009150905080600001549080600101549080600201805461044890610cc6565b80601f016020809104026020016040519081016040528092919081815260200182805461047490610cc6565b80156104c15780601f10610496576101008083540402835291602001916104c1565b820191906000526020600020905b8154815290600101906020018083116104a457829003601f168201915b5050505050908060030180546104d690610cc6565b80601f016020809104026020016040519081016040528092919081815260200182805461050290610cc6565b801561054f5780601f106105245761010080835404028352916020019161054f565b820191906000526020600020905b81548152906001019060200180831161053257829003601f168201915b5050505050908060040160009054906101000a900460ff16908060050154905086565b60008060008381526020019081526020016000206001015414156105cb576040517f08c379a00000000000000000000000000000000000000000000000000000000081526004016105c290610ea2565b60405180910390fd5b600080600083815260200190815260200160002090508060040160009054906101000a900460ff16158160040160006101000a81548160ff0219169083151502179055508060040160009054906101000a900460ff1661062c57600061062e565b425b81600501819055507fcb1ceae718a6ae11d5daf00e292e318717e0acf2d326ed670df0e5ff67ba5000828260040160009054906101000a900460ff16836005015460405161067e93929190610ec2565b60405180910390a15050565b6040518060c0016040528060008152602001600081526020016060815260200160608152602001600015158152602001600081525090565b8280546106ce90610cc6565b90600052602060002090601f0160209004810192826106f05760008555610737565b82601f1061070957805160ff1916838001178555610737565b82800160010185558215610737579182015b8281111561073657825182559160200191906001019061071b565b5b5090506107449190610748565b5090565b5b80821115610761576000816000905550600101610749565b5090565b600081519050919050565b600082825260208201905092915050565b6000819050602082019050919050565b6000819050919050565b6107a481610791565b82525050565b600081519050919050565b600082825260208201905092915050565b60005b838110156107e45780820151818401526020810190506107c9565b838111156107f3576000848401525b50505050565b6000601f19601f8301169050919050565b6000610815826107aa565b61081f81856107b5565b935061082f8185602086016107c6565b610838816107f9565b840191505092915050565b60008115159050919050565b61085881610843565b82525050565b600060c083016000830151610876600086018261079b565b506020830151610889602086018261079b565b50604083015184820360408601526108a1828261080a565b915050606083015184820360608601526108bb828261080a565b91505060808301516108d0608086018261084f565b5060a08301516108e360a086018261079b565b508091505092915050565b60006108fa838361085e565b905092915050565b6000602082019050919050565b600061091a82610765565b6109248185610770565b93508360208202850161093685610781565b8060005b85811015610972578484038952815161095385826108ee565b945061095e83610902565b925060208a0199505060018101905061093a565b50829750879550505050505092915050565b6000602082019050818103600083015261099e818461090f565b905092915050565b6000604051905090565b600080fd5b600080fd5b600080fd5b600080fd5b7f4e487b7100000000000000000000000000000000000000000000000000000000600052604160045260246000fd5b6109fc826107f9565b810181811067ffffffffffffffff82111715610a1b57610a1a6109c4565b5b80604052505050565b6000610a2e6109a6565b9050610a3a82826109f3565b919050565b600067ffffffffffffffff821115610a5a57610a596109c4565b5b610a63826107f9565b9050602081019050919050565b82818337600083830152505050565b6000610a92610a8d84610a3f565b610a24565b905082815260208101848484011115610aae57610aad6109bf565b5b610ab9848285610a70565b509392505050565b600082601f830112610ad657610ad56109ba565b5b8135610ae6848260208601610a7f565b91505092915050565b60008060408385031215610b0657610b056109b0565b5b600083013567ffffffffffffffff811115610b2457610b236109b5565b5b610b3085828601610ac1565b925050602083013567ffffffffffffffff811115610b5157610b506109b5565b5b610b5d85828601610ac1565b9150509250929050565b610b7081610791565b8114610b7b57600080fd5b50565b600081359050610b8d81610b67565b92915050565b600060208284031215610ba957610ba86109b0565b5b6000610bb784828501610b7e565b91505092915050565b610bc981610791565b82525050565b600082825260208201905092915050565b6000610beb826107aa565b610bf58185610bcf565b9350610c058185602086016107c6565b610c0e816107f9565b840191505092915050565b610c2281610843565b82525050565b600060c082019050610c3d6000830189610bc0565b610c4a6020830188610bc0565b8181036040830152610c5c8187610be0565b90508181036060830152610c708186610be0565b9050610c7f6080830185610c19565b610c8c60a0830184610bc0565b979650505050505050565b7f4e487b7100000000000000000000000000000000000000000000000000000000600052602260045260246000fd5b60006002820490506001821680610cde57607f821691505b60208210811415610cf257610cf1610c97565b5b50919050565b7f4e487b7100000000000000000000000000000000000000000000000000000000600052603260045260246000fd5b7f4e487b7100000000000000000000000000000000000000000000000000000000600052601160045260246000fd5b6000610d6182610791565b91507fffffffffffffffffffffffffffffffffffffffffffffffffffffffffffffffff821415610d9457610d93610d27565b5b600182019050919050565b600060a082019050610db46000830188610bc0565b610dc16020830187610c19565b610dce6040830186610bc0565b8181036060830152610de08185610be0565b90508181036080830152610df48184610be0565b90509695505050505050565b6000610e0b82610791565b9150610e1683610791565b9250827fffffffffffffffffffffffffffffffffffffffffffffffffffffffffffffffff03821115610e4b57610e4a610d27565b5b828201905092915050565b7f5461736b20646f6573206e6f7420657869737400000000000000000000000000600082015250565b6000610e8c601383610bcf565b9150610e9782610e56565b602082019050919050565b60006020820190508181036000830152610ebb81610e7f565b9050919050565b6000606082019050610ed76000830186610bc0565b610ee46020830185610c19565b610ef16040830184610bc0565b94935050505056fea264697066735822122024dbff02982f4fef33936f6aeafe78df298dd7c8868582c824c1b819c93f7b1164736f6c63430008090033",
  "linkReferences": {},
  "deployedLinkReferences": {}
}